:080000000C94A8030C9400000D
:100008000C9400000C9400000C9400000C94000068
:100018000C9400000C9400000C9400000C94000058
:100028000C9400000C9400000C9400000C94000048
:100038000C9437070C9400000C9400000C940000FA
:100048000C9432060C9400000C9400000C940000F0
:100058000C9400000C9400000C9400000C94000018
:100068000C9400000C9400000C9400000C94000008
:100078000C9400000C9400000C9400000C940000F8
:100088000C9400003D3D3D4C4B454D424544444594
:10009800443D3D3D003D3D3D3D20205757572E20D6
:1000A8003D3D3D3D3D003D3D204C4B454D42454489
:1000B8004445442E3D3D003D3D3D3D20434F2E4BA4
:1000C80052203D3D3D3D3D00202020456475636143
:1000D80074696F6E202020200020202044657665FA
:1000E8006C6F706D656E7420200020204156522080
:1000F8004465762026204544552000202050494359
:100108002044657620262045445520002020415271
:100118004D20446576202620454455200020504136
:10012800445320446576202620454455200020204D
:100138002043697271756974204544552020000078
:100148001027E80364000A000100001000011000F5
:100158000100000000051C04050531040A054A04D5
:100168001005B004140554051805CC051D057D04BB
:100178000000000000000000000000000000000077
:100188000000000000000000000000000000000067
:100198000000000000000000000000000000000057
:1001A8000000000068656C700073686F7700626C0F
:1001B800696E6B006C6564006C6364006C65643721
:1001C80000646F746D6174002A2A2A2041746D6579
:1001D8006C203132382064656D6F202A2A2A0A0083
:1001E80048454C502066756E6374696F6E2065785B
:1001F80065637574656400546573742031005465D3
:100208007374203200546573742033000D68656C74
:10021800703A2048656C702066756E6374696F6EFD
:10022800200A0D00626C696E6B3A20426C696E6B35
:100238002066756E6374696F6E200A0D006C6564C4
:100248003A204C65642066756E6374696F6E200A87
:100258000D006C63643A204C63642066756E6374A9
:10026800696F6E200A0D006C6564373A204C65642E
:10027800372066756E6374696F6E200A0D00424CF4
:10028800494E4B2068656C70206D656E753A200D7F
:100298003C626C696E6B3E203C6F6E2F6F66663EEB
:1002A800203C76616C756528312D3E38293E006FFB
:1002B8006E006563686F3A20646973706C617920B9
:1002C80000424C494E4B2066756E6374696F6E2010
:1002D800657865637574656400446F744D61742056
:1002E80068656C70206D656E753A200D3C646F749E
:1002F8006D61743E203C646973703E203C76616C8D
:10030800756528302D3E3237293E006469737000C8
:100318006563686F3A20446F74204D617472697820
:1003280020646973706C617920006563686F3A2096
:100338003C646F746D61743E203C646973703E2048
:100348003C6368617261637465723E006563686FDF
:100358003A204C65642068656C70206D656E753A4E
:10036800200D3C6C65643E203C6F6E2F6F66663EC8
:10037800203C76616C756528312D3E38293E006534
:1003880063686F3A205475726E206F6E206C6564D6
:100398002000616C6C006563686F3A20416C6C20CA
:1003A8006C656420776173206F6E005475726E20DF
:1003B8006F6E20616C6C206C656473006F666600FC
:1003C8006563686F3A205475726E206F6666206C9C
:1003D800656420006563686F3A20416C6C206C6529
:1003E8006420776173206F6666005475726E206FA3
:1003F800666620616C6C206C656473006563686F69
:100408003A203C6C65643E203C6F6E2F6F66663EFA
:10041800203C6368616E6E656C2F616C6C3E006594
:1004280063686F3A204C63642068656C70206D6562
:100438006E753A200D3C6C63643E203C64697370B1
:100448003E203C746578743E006563686F3A2044CA
:100458006973706C6179206F6E204C4344002D687D
:10046800656C70004C4544372068656C70206D657C
:100478006E753A200D3C6C6564373E203C646973A8
:10048800703E203C76616C756528312D3E38293EDA
:10049800006563686F3A203C6C6564373E203C76A3
:1004A800616C75653E000102040810204080E7DB9E
:1004B800BDBD81BDBDBDC1BDBDC1DDBDBDC1C3BD6E
:1004C800FDFDFDBDBDC3C1BDBDBDBDBDBDC181FD82
:1004D800FD81FDFDFD8181FDFD81FDFDFDFDE7D96E
:1004E800BDFD8DBDDBE7BDBDBD81BDBDBDBDC3E7E8
:1004F800E7E7E7E7E7C3C3E7E7E7E7E5F5FBDDEDB0
:10050800F5F9F5EDDDBDFDFDFDFDFDFDFD81BD99B7
:10051800A5A5A5BDBDBDBDBDB9B5AD9DBDBDE7DB3F
:10052800BDBDBDBDDBE7E1DDDDDDE1FDFDFDE3DDFD
:10053800DDDDD5CDC3BFC1BDBDC1DDBDBDBDC3BD45
:10054800FDC3BFBFBDC381E7E7E7E7E7E7E7BDBD99
:10055800BDBDBDBDBDC3BDBDBDBDBDBDDBE7BDBD75
:10056800BDBDA5A5A599BDBDD9E7E7DBBDBDBDBD91
:10057800BDDBE7E7E7E781BFDFEFF7FBFD810000C1
:10058800060000003E3E20000D00510854084F4B65
:1005980000436F6D6D616E64206E6F7420726563C9
:1005A8006F676E69736564001B5B324A1B5B481B8F
:1005B8005B334A0020003F065B4F666D7D277F6FE7
:1005C80001002D4E414E00494E4600000100020038
:1005D8005A0105000005AC0105000505B10106003A
:1005E8000A05B60104001005BC0104001405C00189
:1005F80005001805C40107001D05C9011C007D0878
:100608005C0118002405D00117003C05E80107002B
:100618005305FF0107005A050602070061050D0290
:10062800180068051402190080052C0215009905A8
:1006380045021500AE055A021700C3056F020500F2
:10064800DA05AC013100DF05860203001006B702A7
:100658000F001306BA0218002206C90205003A065E
:10066800AC0132003F06E1020500710613031A00CF
:10067800760618032200900632030500B206AC0184
:100688003300B70654030300EA06B7021300ED0669
:1006980087030D0000078D0304000D079A0315005A
:1006A80011079E0311002607B30304003707C4038C
:1006B80014003B07C8030E004F07CE0304005D0774
:1006C8009A0316006107DC0312007707F203230080
:1006D800890704040500AC07AC012A00B107270408
:1006E8000500DB0713031500E00751040600F507B2
:1006F80066042D00FB076C040500280813030F008F
:100708002D08BA0215003C0899040800AC08AE048C
:10071800D000B408B6040600040086050300990A50
:100728008C0501009D0A90050300510896051700E5
:10073800540899050C006B08B0050A009F0ABE050D
:100748000100AC0AC8050000F894EE27ECBBF1E004
:10075800F5BFE5BFE0936C00F8E1F1BDE1BD8DE0C8
:10076800A2E0BB27ED938A95E9F780E090E1A0E04D
:10077800B1E0ED930197E9F7E4EDF5E08591959106
:10078800009761F0A591B59105901590BF01F00112
:1007980005900D920197E1F7FB01F0CF8BBFEFEFCA
:1007A800EDBFE0E1EEBFC0E0D5E00C94DB0324D060
:1007B8000E944A060E941507E4E0F4E0E0937708F7
:1007C800F0937808EDE7F8E0E0937908F0937A0879
:1007D800E7E0F0E0E0937B08F0937C08A7E7B8E057
:1007E8000E944907A4E2B5E00E945B09A7E7B8E0C8
:1007F8000E945607FBCFFFCF0E94610978940895A5
:100808000E9475090E947C099F0100E010E0021710
:10081800130754F4F8010E948009AC91BB270E9489
:1008280025060F5F1F4FF3CF0E94700A0C940E0924
:100838000E948509ACE3B5E00E945B09A3E5B5E039
:100848000E945B09AAE5B5E00E945B09A1E6B5E054
:100858000E945B09E0E00C94C6080E948509A8E69E
:10086800B5E00E945B09A0E8B5E00E945B09A9E930
:10087800B5E00E945B09AEEAB5E00E945B09A3EC13
:10088800B5E00E945B09E0E00C94C6080E948C0960
:100898004CF10E949409AAEDB5E00E946F08E0307F
:1008A80021F4AFEDB5E00E945B090E949409A0E134
:1008B800B6E00E946F08E030A1F40E949B090E94F4
:1008C800A00922F00C31E0E01E070CF00AC0D801A4
:1008D8000E945706A3E1B6E00E945B090E949B09AB
:1008E8008FDF04C0A2E2B6E00E945B09E0E00C944E
:1008F8000C090E948C094CF10E949409AAE3B6E005
:100908000E946F08E03021F4AFE3B6E00E945B0973
:100918000E949409A1E7B6E00E946F08E030A1F4B4
:100928000E949B090E94A00922F00C31E0E01E07FA
:100938000CF00AC0D8010E945706A6E7B6E00E944C
:100948005B090E949B095CDF04C0A0E9B6E00E9435
:100958005B09E0E00C940C09BA93AA93619781E1D2
:10096800A0E0B0E0E8E7F1E00E94750A1A930A9364
:10097800AD89BE89129714F40C944B050E94A50901
:10098800A2EBB6E00E946F08E03021F4A7EBB6E0D6
:100998000E945B090E94A509AAEEB6E00E946F08B2
:1009A800E030B1F50E94AC090E94B10924F4093085
:1009B800E0E01E070CF00FC0A02FA1501CD1ADEE37
:1009C800B6E00E945B090E94AC090E94B809A0E049
:1009D800B7E00E94BF090E94AC09BA93AA93ADE0A0
:1009E800B7E00E946F08E03099F400E010E00830AA
:1009F800E0E01E072CF4A02FFED00F5F1F4FF7CFAB
:100A0800A1E1B7E00E945B09A6E2B7E00E9489066F
:100A18000E94A509A7E3B7E00E946F08E030B1F58E
:100A28000E94AC090E94B10924F40930E0E01E07D5
:100A38000CF00FC0A02FA150F0D0ABE3B7E00E949C
:100A48005B090E94AC090E94B809AFE4B7E00E94B4
:100A5800BF090E94AC09BA93AA93ADE5B7E00E941A
:100A68006F08E03099F400E010E00830E0E01E077D
:100A78002CF4A02FD2D00F5F1F4FF7CFA1E6B7E01D
:100A88000E945B09A7E7B7E00E94890604C0A9E8AD
:100A9800B7E00E945B09E0E0198108816796089534
:100AA800BA93AA93A29782E2A0E0B0E0EAE8F1E064
:100AB8000E94750A0E94670A40E050E0AAA5BBA5FB
:100AC800129714F40C94C8050E94CF09ACEAB7E059
:100AD8000E946F08E03021F4A1EBB7E00E945B09A7
:100AE8000E94CF09ABEDB7E00E946F08E03011F02B
:100AF8000C94C70520E030E002E010E0EAA5FBA571
:100B08000E171F0784F50E94D609DF010E9490087E
:100B18002E0F3F1F2131E0E03E076CF4FA01DE01A1
:100B28005796EA0FFB1F0F010E94D609E40FF51F25
:100B3800E081D001EC932131E0E03E0724F0273139
:100B4800E0E03E070CF00CC0FE013696FA93EA93FB
:100B5800F801AAA5BBA50E94E009DF010E945E0872
:100B68000F5F1F4FCBCFDE0157960E9489062131B8
:100B7800E0E03E0724F0DE0116960E94AC06A0EEE7
:100B8800B7E00E945B09E0E00E946E0AAC96089507
:100B98000E948C094CF10E949409A5EFB7E00E94CD
:100BA8006F08E03021F4ABEFB7E00E945B090E94C8
:100BB8009409A8E2B8E00E946F08E030A1F40E940E
:100BC8009B090E94A00922F00A30E0E01E070CF001
:100BD8000AC0D8010E944908ADE2B8E00E945B094A
:100BE8000E949B090DDE04C0ACE3B8E00E945B09DB
:100BF800E0E00C940C09AA930E946109E881A1E045
:100C0800B0E00E94530AA0919908B0919A08EA2B83
:100C1800FB2B0E94E7090C941307AA930E94610911
:100C2800E881A1E0B0E00E94530AE095F095A09118
:100C38009908B0919A08EA23FB230E94E7090C94CB
:100C48001307BA93AA935D9BFECF5098E981E17090
:100C580009F0509AE881ECB90C945C080E94F009FC
:100C68001A930A931BB10CB1A02FBB27EADFE12F1F
:100C7800EC7139F4E7E7F8E0FA93EA93A02F0E94C1
:100C8800E407099119910E94FE091895E0E0EBB973
:100C9800E8E9EAB9E6E0E0939500E0E0E093900047
:100CA800E7E6E9B908950E94750920E030E0EC8193
:100CB800E09394092C813D81E0E8E5BFE0E0E09312
:100CC800008300E010E00830E0E01E07D4F4F901EA
:100CD8000E945C0AEC54F74FE00FF11FE081E095A9
:100CE800E0930084E0E0E0930085ACEAB8E0A00F70
:100CF800B11FEC91E09300830E940C0A0F5F1F4F15
:100D0800E2CF0E94700A0C940E090E94100A8F010B
:100D180020E030E040D063D020E030E020173107F9
:100D28002CF4A0E261D02F5F3F4FF8CF58D020E0DD
:100D380030E02017310744F4F9010E948009AC9192
:100D480053D02F5F3F4FF5CF0E94700A0C940E09C5
:100D58000E94100A8F0120E030E02ED042D020E01F
:100D680030E0201731072CF4A0E23ED02F5F3F4F30
:100D7800F8CF37D020E030E02017310744F4F901EC
:100D88000E948009AC9130D02F5F3F4FF5CF0E9471
:100D9800700A0C940E091A930A9300E010E01FD011
:100DA80000E010E00031E0E01E072CF4A0E21CD0C7
:100DB8000F5F1F4FF7CF10C01A930A9300E010E09F
:100DC80010D000E010E00031E0E01E072CF4A0E2B3
:100DD8000BD00F5F1F4FF7CF099119910895A0E825
:100DE80001C0A0EC08D00895AA93E92DE0610E9403
:100DF800150AE06506C0AA93E92DEF7C0E94150A42
:100E0800E0649E2EE093008285E08A95F1F7E92D53
:100E1800EF7B9E2EE093008285ED8A95F1F721966F
:100E28000895E0E0E0930082E0930083AAE00E9446
:100E38001D0AA5E00E941D0A0E940C0AA0E3DBDF40
:100E4800A5E0B0E00E94490AA8E3D5DFACE0D3DF13
:100E5800A4E1D1DFA6E0CFDFA1E0CDDFA2E0B0E0E2
:100E68000E94490A08950E94F009A7E7B8E01AD03D
:100E7800ECB5FDB5A0919509B0919609EA0FFB1F55
:100E8800FDBDECBD0E94FE091895BA93AA930E9475
:100E9800230AE881F981FA93EA93ABE6B8E0DFD058
:100EA800E0E006C1BA93AA93EC970E94690A10E0A1
:100EB80020E030E021FE7FC0E89421F80E942A0A51
:100EC800EE0FFF1FEA0FFB1FFF93EF93E9E1FAE034
:100ED8000E942F0AAF91BF91ED93FC930E942A0ABA
:100EE8000E94E009309711F01E3108F012C01F5F10
:100EF8000E942A0AEE0FFF1FEA0FFB1FFF93EF93D2
:100F0800E0E0F0E00E942F0AAF91BF91ED93FC93CF
:100F1800E5CF20E030E0DE01A05CBF4F0D90BC9132
:100F2800A02D14960E94630A2E173F07D0F50E9441
:100F3800350AFE01EE5BFF4F0190F081E02DA281A2
:100F4800B381F9010E945E0AAE0FBF1F0E94630AB7
:100F5800DF010E946F08E03009F50E943A0AA28179
:100F6800B381F9010E945E0AAE0FBF1F12960E945C
:100F7800630AFF93EF93E12FF0E0FA93EA93DE011F
:100F88001696EF91FF910995ADE0B0E00E94250615
:100F98000E94410A0E94450AE0E00DC02F5F3F4FC2
:100FA800BACF0E94410AADE9BAE059D00E94410A7D
:100FB8000E94450AE3E00E94700AEF96239608957E
:100FC800AA93E881F0E0ED30A0E0FA07C9F4A09117
:100FD800170AB091180AE0E0EC93E9E1FAE0FA9315
:100FE800EA93A7E9B9E00E9483080E94230AE981ED
:100FF800FA81FA93EA930E94450A689421F82DC071
:10100800E830A0E0FA0789F4E7E9F9E0A091170AC7
:10101800B091180AEA17FB0738F4A7E1BAE0ED9196
:10102800FD913197FE93EE9318C0A7E9B9E0E091DE
:10103800170AF091180AEA1BFB0BE038A0E0FA0740
:1010480058F4A7E1BAE0ED91FD913196FE93EE9345
:101058003197A881A08301C0E5E023960895BA934B
:10106800AA93E297FE01FA93EA93ACA9BDA90E945C
:101078008308ACA9BDA90E94630AFF93EF93DE0120
:10108800EF91FF910995E6960895BA93AA93E0E83F
:10109800E5BFE0E0E0930081E0930083E0E2E093C5
:1010A8000081E881F981E156F54FE081E093008302
:1010B80022960895BA93AA93E991F991A991B991C1
:1010C800CD016D916623E9F7119761916D936623C0
:1010D800E1F7FC010895BA93AA93E991F991A991CE
:1010E800B9916D917191671721F46623D1F7EE27B5
:1010F8000895671BE1F3E1E008F4E2500895BA931C
:10110800AA93E991F991A991B991CD0161916D9352
:101118006623E1F7FC010895BA93AA93A991B991BE
:10112800EE27FF276D91662311F03196FBCF0895C6
:10113800BA93AA93BB81AA816C91662361F0F98165
:10114800E881C895002029F031966015D1F7FD0196
:1011580004C01196F1CFEE27FF270C94C608BA9366
:10116800AA93BB81AA81882799276D91662349F0A4
:10117800F981E8810590002021F06015D9F70196E2
:10118800F4CFFC0124960895BA93AA931A930A936C
:10119800EC81FD81309779F4E091AA0AF091AB0ACD
:1011A800309719F4E0E0F0E033C0E091AA0AF0913A
:1011B800AB0AEC83FD830E94350AAC81BD810E9495
:1011C800B308AC81BD81EA0FFB1FEC83FD83AC81C2
:1011D800BD81EC91E03041F4E0E0E093AA0AE093AD
:1011E800AB0AE0E0F0E014C00E94350AAC81BD8192
:1011F8000E949C088F01309729F0D8010F5F1F4F7C
:10120800E0E0EC930093AA0A1093AB0AEC81FD810D
:101218001981088126960895BA93AA93B981A8815D
:10122800EC918A2FAE2F0E945009A82FEE2311F0BF
:101238001196F6CFE894EC91ED3211F4689402C05F
:10124800EB3209F4119666277727EC918A2FAE2F97
:101258000E944709A82FEE2379F0FB01660F771F3C
:10126800660F771F6E0F7F1F660F771FED91FF27A1
:10127800E0536E0F7F1FE9CFFB011EF4E095F09558
:10128800319622960895AA93E1E0F991F03310F08F
:10129800FA3308F0EE270895AA93E1E0F991F032C5
:1012A80029F0F93010F0FE3008F0EE270895E091AB
:1012B8007708F091780809950895E0E8E5BFE0E03F
:1012C800E0930080E0930081E0930082E093008344
:1012D800E0930084E0930085E0930086E093008724
:1012E8000895BA93AA930E94690A00E010E008954D
:1012F800AC81BD810C949008AC81BD81AE0FBF1F3D
:101308000895BA93AA93EA81FB81E881F981089547
:10131800BA93AA931A930A93AC81BD811297089540
:10132800EA81FB81A281B381BA93AA930895EA81E5
:10133800FB81A481B58108950E9410098F011123B2
:101348000895EB89FC89A281B381BA93AA93089581
:10135800EB89FC89A481B58108950E9410098F0149
:1013680000240016010608950E940404FE01329626
:10137800FA93EA9308950E948308FE013296FA933D
:10138800EA93ED89FE89A481B5810E945E08DE0199
:1013980012960C948906E8A5F9A5A281B381BA939F
:1013A800AA930895F801A8A5B9A5EE0FFF1FAE0FDF
:1013B800BF1F0E94630A0895EE0FFF1FAE0FBF1FE5
:1013C8000E94630A0895E0939908F0939A08E091BF
:1013D8009908E093008008950A921A92FA926A9303
:1013E8007A938A939A93AA93BA93EA93FA93EFB764
:1013F800EA930895E991EFBFF991E991B991A9911B
:101408009991899179916991F99019900990089524
:10141800A1E0B0E00C94490ABA93AA930E94690A21
:1014280067CF9E2EE0930082E881E0930083E92D48
:101438000895B0E00E94490AA0E30C94FF06E7E98A
:10144800F9E0E093170AF093180A0895E12FF0E005
:10145800DE0114960895FA93EA93ACEBB5E00C9488
:10146800C808EC81FD81FA93EA930895FE01E05CD7
:10147800FF4F0190F081E02D0895F8DFFA93EA9389
:101488000895A9E9BAE00C943308109639F080EA77
:101498009FE00197F1F7A8951197C9F70895EE23F2
:1014A8000E2EFD0121F0EE0FFF1F0A94E1F70895BB
:1014B800EE0FFF1FEE0FFF1FEE0FFF1F0895ED91B8
:1014C800FC91119708955A934A933A932A931A9341
:1014D8000A9308955D814C813B812A811981088195
:1014E8000895AC0FBD1F05900D928A95E1F70895F8
:00000001FF
