:0A0000000C942A030C9400000C94E9
:10000A0000000C9400000C9400000C9400000C9466
:10001A0000000C9400000C9400000C9400000C9456
:10002A0000000C9400000C9400000C9400000C9446
:10003A0000000C9400000C9498060C9400000C9498
:10004A008D050C9400000C9400000C9400000C9494
:10005A0000000C9400000C9400000C9400000C9416
:10006A0000000C9400000C9400000C9400000C9406
:10007A0000000C9400000C9400000C9400000C94F6
:10008A0000003D3D3D4C4B454D4245444445443DB1
:10009A003D3D003D3D3D3D20205757572E203D3DDB
:1000AA003D3D3D003D3D204C4B454D424544444578
:1000BA00442E3D3D003D3D3D3D20434F2E4B5220B9
:1000CA003D3D3D3D3D0020202045647563617469D6
:1000DA006F6E2020202000202020446576656C6FFA
:1000EA00706D656E742020002020415652204465B0
:1000FA00762026204544552000202050494320449C
:10010A0065762026204544552000202041524D2066
:10011A00446576202620454455200020504144530A
:10012A00204465762026204544552000202020437F
:10013A0069727175697420454455202000001027A2
:10014A00E80364000A000100001000011000010029
:10015A0000000005AF030505B8030A05D103100521
:10016A0009041405B10418052A050000000000005E
:10017A000000000000000000000000000000000075
:10018A000000000000000000000000000000000065
:10019A000000000000000000000000000000686588
:1001AA006C700073686F7700626C696E6B006C65C7
:1001BA0064006C6364006C6564370048454C5020E9
:1001CA0066756E6374696F6E2065786563757465AC
:1001DA0064000D68656C703A2048656C702066751D
:1001EA006E6374696F6E200A0D00626C696E6B3AF9
:1001FA0020426C696E6B2066756E6374696F6E203F
:10020A000A0D006C65643A204C65642066756E635D
:10021A0074696F6E200A0D006C63643A204C636443
:10022A002066756E6374696F6E200A0D006C6564D2
:10023A00373A204C6564372066756E6374696F6E51
:10024A00200A0D002D68656C7000424C494E4B2007
:10025A0068656C70206D656E753A200D3C626C693C
:10026A006E6B3E203C6F6E2F6F66663E203C766159
:10027A006C756528312D3E38293E006F6E00656326
:10028A00686F3A20646973706C61792000424C4946
:10029A004E4B2066756E6374696F6E206578656370
:1002AA0075746564006563686F3A204C65642068FC
:1002BA00656C70206D656E753A200D3C6C65643E08
:1002CA00203C6F6E2F6F66663E203C76616C7565CA
:1002DA0028312D3E38293E006563686F3A205475EF
:1002EA00726E206F6E206C65642000616C6C006514
:1002FA0063686F3A20416C6C206C65642077617387
:10030A00206F6E005475726E206F6E20616C6C20C7
:10031A006C6564006F6666006563686F3A205475A1
:10032A00726E206F6666206C656420006563686F74
:10033A003A20416C6C206C656420776173206F668B
:10034A0066005475726E206F666620616C6C206C54
:10035A006564004C65642066756E6374696F6E200F
:10036A006578656375746564006563686F3A204CE7
:10037A0063642068656C70206D656E753A200D3C6B
:10038A006C63643E203C646973703E203C746578FB
:10039A00743E0064697370006563686F3A2044694B
:1003AA0073706C6179206F6E204C4344004C454455
:1003BA00372068656C70206D656E753A200D3C6C4F
:1003CA006564373E203C646973703E203C76616CFC
:1003DA00756528312D3E38293E004C656437206604
:1003EA00756E6374696F6E2065786563757465648C
:1003FA0000000102040810204080E7DBBDBD81BD7A
:10040A00BDBDC1BDBDC1DDBDBDC1C3BDFDFDFDBD20
:10041A00BDC3C1BDBDBDBDBDBDC181FDFD81FDFD6C
:10042A00FD8181FDFD81FDFDFDFDE7D9BDFD8DBD90
:10043A00DBE7BDBDBD81BDBDBDBDC3E7E7E7E7E7FE
:10044A00E7C3C3E7E7E7E7E5F5FBDDEDF5F9F5ED2A
:10045A00DDBDFDFDFDFDFDFDFD81BD99A5A5A5BD8A
:10046A00BDBDBDBDB9B5AD9DBDBDE7DBBDBDBDBDA6
:10047A00DBE7E1DDDDDDE1FDFDFDE3DDDDDDD5CD44
:10048A00C3BFC1BDBDC1DDBDBDBDC3BDFDC3BFBF12
:10049A00BDC381E7E7E7E7E7E7E7BDBDBDBDBDBD92
:1004AA00BDC3BDBDBDBDBDBDDBE7BDBDBDBDA5A554
:1004BA00A599BDBDD9E7E7DBBDBDBDBDBDDBE7E79E
:1004CA00E7E781BFDFEFF7FBFD81060000003E3E54
:1004DA0020000D009B079E074F4B00436F6D6D6117
:1004EA006E64206E6F74207265636F676E697365E0
:1004FA00640020003F065B4F666D7D277F6F010019
:10050A002D4E414E00494E460000010002005A019C
:10051A0005000005A80105000505AD0106000A054C
:10052A00B20104001005B80104001405BC0105005D
:10053A001805C0011800CC075C0117001D05C5018C
:10054A0018003405DC0119004C05F4011500650595
:10055A000D0215007A05220217008F0537020600E0
:10056A00A6054E023100AC0554020300DD058502E2
:10057A000F00E00588021800EF059702060007063B
:10058A004E0233000D06AF02030040068502130037
:10059A004306E2020D005606E80204006306F5026D
:1005AA0015006706F90210007C060E0304008C068B
:1005BA001E031400900622030E00A406280304005A
:1005CA00B206F5021600B60636031100CC064C0335
:1005DA001600DD065D030600F3064E022A00F90640
:1005EA007303050023079D0315002807A2030600CD
:1005FA003D074E022D004307B703050070079D0310
:10060A000F007507880217008407E4030800E6074D
:10061A00FC03D000EE0704040100D508D40401004D
:10062A000500D6040300D909D8040100DD09DC0459
:10063A0003009B07E20417009E07E5040A00DF098E
:10064A00FE040100EC0908050000F894EE27ECBB53
:10065A00F1E0F5BFE5BFE0936C00F8E1F1BDE1BD63
:10066A008DE0A2E0BB27ED938A95E9F780E090E15F
:10067A00A0E0B1E0ED930197E9F7E4E1F5E08591B7
:10068A009591009761F0A591B59105901590BF01DC
:10069A00F00105900D920197E1F7FB01F0CF8BBFB6
:1006AA00EFEFEDBFE0E1EEBFC0E0D5E00C945D03F3
:1006BA0025D00E94A5051BD20E94B2050E949D0763
:1006CA000E947906E5E9F3E0E093C607F093C707CD
:1006DA00ECECF7E0E093C807F093C907E6E0F0E036
:1006EA00E093CA07F093CB07A6ECB7E00E94A206F4
:1006FA00A6ECB7E00E94AB06FBCFFFCFE0E0E093A9
:10070A000080E09300810E94AB08E0E0E09300845F
:10071A00E0930085E0930086E0930087789408953B
:10072A000E94B10800E010E00E94B6089F0100E0B4
:10073A0010E00217130754F4F8010E94BA08AC91AA
:10074A00BB270E9480050F5F1F4FF3CF0E94B1099C
:10075A000C945E08BA93AA93ADE1B5E00E94BF0873
:10076A00E0E00C941608BA93AA93A4E3B5E00E94B9
:10077A00BF08ACE4B5E00E94BF08A5E6B5E00E9458
:10078A00BF08AAE7B5E00E94BF08AFE8B5E00E943B
:10079A00BF08E0E00C9416080E94C50854F50E94B0
:1007AA00CE08A6EAB5E00E94BF07E03021F4ACEA21
:1007BA00B5E00E94BF080E94CE08ADEDB5E00E94E8
:1007CA00BF07E030B1F40E94D5080E9460088F018B
:1007DA00112322F00A30E0E01E070CF00AC0D8010B
:1007EA000E94A007A0EEB5E00E94BF080E94D508AB
:1007FA0097DFEC81FD81309721F4AFEEB5E00E94DE
:10080A00BF08E0E00C945C08BA93AA93619781E16F
:10081A00A0E0B0E0E4E7F1E00E94B6091A930A9377
:10082A00AD89BE890E94A40914F00C94A4040E9404
:10083A00DA08A7E0B6E00E94BF07E03021F4ADE095
:10084A00B6E00E94BF080E94DA08A0E4B6E00E945F
:10085A00BF07E030B1F50E94E1080E94E60824F4DF
:10086A000930E0E01E070CF00FC0A02FA15025D1DF
:10087A00A3E4B6E00E94BF080E94E1080E94ED08C6
:10088A00A6E5B6E00E94F4080E94E108BA93AA938A
:10089A00A3E6B6E00E94BF07E03099F400E010E05A
:1008AA000830E0E01E072CF4A02F07D10F5F1F4F7E
:1008BA00F7CFA7E6B6E00E94BF08ACE7B6E00E9411
:1008CA00E9050E94DA08ACE8B6E00E94BF07E0300A
:1008DA00B1F50E94E1080E94E60824F40930E0E03C
:1008EA001E070CF00FC0A02FA150F3D0A0E9B6E06C
:1008FA000E94BF080E94E1080E94ED08A4EAB6E03F
:10090A000E94F4080E94E108BA93AA93A2EBB6E007
:10091A000E94BF07E03099F400E010E00830E0E000
:10092A001E072CF4A02FD5D00F5F1F4FF7CFA6EBD1
:10093A00B6E00E94BF08ACECB6E00E94E905ED897A
:10094A00FE89309721F4ADEDB6E00E94BF08E0E0E1
:10095A001981088167960895BA93AA93A29782E2A9
:10096A00A0E0B0E0E6E8F1E00E94B6090E94A8091A
:10097A0040E050E0AAA5BBA50E94A40914F00C947B
:10098A0026050E940409A3EFB6E00E94BF07E030E3
:10099A0021F4A9EFB6E00E94BF080E940409A3E26D
:1009AA00B7E00E94BF07E03011F00C94250520E063
:1009BA0030E002E010E0EAA5FBA50E171F0784F558
:1009CA000E940B09DF010E94E0072E0F3F1F213111
:1009DA00E0E03E076CF4FA01DE015796EA0FFB1FCE
:1009EA000F010E940B09E40FF51FE081D001EC937F
:1009FA002131E0E03E0724F02731E0E03E070CF029
:100A0A000CC0FE013696FA93EA93F801AAA5BBA593
:100A1A000E941509DF010E94AE070F5F1F4FCBCF5F
:100A2A00DE0157960E94E9052131E0E03E0724F0F5
:100A3A00DE0116960E940E06A8E2B7E00E94BF08E1
:100A4A00E0E00E94AF09AC9608950E94C50854F5EB
:100A5A000E94CE08ADE3B7E00E94BF07E03021F460
:100A6A00A3E4B7E00E94BF080E94CE08A0E7B7E05F
:100A7A000E94BF07E030B1F40E94D5080E946008C6
:100A8A008F01112322F00A30E0E01E070CF00AC0A1
:100A9A00D8010E94A007A5E7B7E00E94BF080E94FC
:100AAA00D5083EDEEC81FD81309721F4A4E8B7E059
:100ABA000E94BF08E0E00C945C080E941C09A09107
:100ACA00E407B091E507EA2BFB2B0E9423090C945B
:100ADA0077060E941C09E095F095A091E407B09171
:100AEA00E507EA23FB230E9423090C947706E0E03A
:100AFA00E7BB0C949D07BA93AA935D9BFECF5098CF
:100B0A00E981E17009F0509AE881ECB90C94AC07DC
:100B1A000E942C091A930A931BB10CB1A02FBB2770
:100B2A00EADFE12FEC7139F4E6ECF7E0FA93EA93A5
:100B3A00A02F0E943A07099119910E943A09189523
:100B4A00E0E0EBB9E8E9EAB9E6E0E0939500E0E035
:100B5A00E0939000E7E6E9B90895E0E0E7BB0C947A
:100B6A009D070E94AA0900E010E020E030E0E0E0E2
:100B7A00E7BBE0E8E5BFE091D208F0E0F0979F011B
:100B8A0000E010E00830E0E01E07D4F4F9010E940A
:100B9A009909E251F84FE00FF11FE081E095E093E7
:100BAA000084E0E0E0930085A6EEB7E0A00FB11F55
:100BBA00EC91E09300830E9448090F5F1F4FE2CF38
:100BCA000E94B1090C9416080E94B1080E94B60846
:100BDA008F0120E030E042D065D020E030E02017DD
:100BEA0031072CF4A0E263D02F5F3F4FF8CF5AD0E1
:100BFA0020E030E02017310744F4F9010E94BA08D6
:100C0A00AC9155D02F5F3F4FF5CF0E94B1090C949C
:100C1A005E080E94B1080E94B6088F0120E030E009
:100C2A002ED042D020E030E0201731072CF4A0E289
:100C3A003ED02F5F3F4FF8CF37D020E030E020176B
:100C4A00310744F4F9010E94BA08AC9130D02F5F01
:100C5A003F4FF5CF0E94B1090C945E081A930A938C
:100C6A0000E010E01FD000E010E00031E0E01E07D5
:100C7A002CF4A0E21CD00F5F1F4FF7CF10C01A93BD
:100C8A000A9300E010E010D000E010E00031E0E04C
:100C9A001E072CF4A0E20BD00F5F1F4FF7CF09916C
:100CAA0019910895A0E801C0A0EC08D00895AA936C
:100CBA00E52DE0610E944C09E06506C0AA93E52D86
:100CCA00EF7C0E944C09E0645E2EE093008285E08E
:100CDA008A95F1F7E52DEF7B5E2EE093008285ED94
:100CEA008A95F1F7219608950E94AB08AAE00E941E
:100CFA005409A5E00E9454090E944809A0E3DEDFD6
:100D0A00A5E0B0E00E948609A8E3D8DFACE0D6DF10
:100D1A00A4E1D4DFA6E0D2DFA1E0D0DFA2E0B0E018
:100D2A000E94860908950E942C090E94B605E2B71E
:100D3A00EA5FE2BF0E943A091895BA93AA930E9401
:100D4A005A09E881F9810E94610901C1BA93AA93FB
:100D5A00EC970E94AA0910E020E030E021FE80C052
:100D6A00E89421F80E946909EE0FFF1FEA0FFB1FA2
:100D7A00FF93EF93E9E5F9E00E946E09AF91BF9105
:100D8A00ED93FC930E9469090E941509309711F0AE
:100D9A001E3108F012C01F5F0E946909EE0FFF1F83
:100DAA00EA0FFB1FFF93EF93E0E0F0E00E946E0969
:100DBA00AF91BF91ED93FC93E5CF20E030E0DE01E7
:100DCA00A05CBF4F0D90BC91A02D14960E94A00963
:100DDA002E173F07C8F50E947409FE01EE5BFF4F0C
:100DEA000190F081E02DA281B381F9010E949B0953
:100DFA00AE0FBF1F0E94A009DF010E94BF07E030AB
:100E0A0001F50E947909A281B381F9010E949B0927
:100E1A00AE0FBF1F12960E94A009FF93EF93E12F16
:100E2A00F0E0FA93EA93DE011696EF91FF910995A5
:100E3A00ADE0B0E00E9480050E9479090E94610934
:100E4A000FC02F5F3F4FBBCF0E947909FA93EA93F5
:100E5A00ADEDB9E057D00E9479090E948009E3E01C
:100E6A000E94B109EF9623960895AA93E881F0E0CB
:100E7A00ED30A0E0FA07B9F4A0915709B0915809EA
:100E8A00E0E0EC93E9E5F9E0FA93EA93A7EDB8E03C
:100E9A000E94D3070E945A09E981FA810E948009B7
:100EAA00689421F82DC0E830A0E0FA0789F4E7ED4C
:100EBA00F8E0A0915709B0915809EA17FB0738F4EE
:100ECA00A7E5B9E0ED91FD913197FE93EE9318C035
:100EDA00A7EDB8E0E0915709F0915809EA1BFB0B1E
:100EEA00E038A0E0FA0758F4A7E5B9E0ED91FD91E2
:100EFA003196FE93EE933197A881A08301C0E5E075
:100F0A0023960895BA93AA93E297FE01FA93EA9375
:100F1A00ACA9BDA90E94D307ACA9BDA90E94A0098A
:100F2A00FF93EF93DE01EF91FF910995E6960895FD
:100F3A00E0E8E5BF0895BA93AA93E0E2E09300815E
:100F4A00E881F981E152F64FE081E093008322962D
:100F5A000895BA93AA93E991F991A991B991CD010A
:100F6A006D916623E9F7119761916D936623E1F715
:100F7A00FC010895BA93AA93E991F991A991B991BB
:100F8A006D917191671721F46623D1F7EE270895C1
:100F9A00671BE1F3E1E008F4E2500895BA93AA93DB
:100FAA00E991F991A991B991CD0161916D93662366
:100FBA00E1F7FC010895BA93AA93A991B991EE2792
:100FCA00FF276D91662311F03196FBCF0895BA93EE
:100FDA00AA93BB81AA816C91662361F0F981E881A9
:100FEA00C895002029F031966015D1F7FD0104C09B
:100FFA001196F1CFEE27FF270C941608BA93AA93FD
:10100A00BB81AA81882799276D91662349F0F981C6
:10101A00E8810590002021F06015D9F70196F4CFF8
:10102A00FC0124960895BA93AA931A930A93EC8121
:10103A00FD81309779F4E091EA09F091EB09309754
:10104A0019F4E0E0F0E033C0E091EA09F091EB092D
:10105A00EC83FD830E947409AC81BD810E94030860
:10106A00AC81BD81EA0FFB1FEC83FD83AC81BD819E
:10107A00EC91E03041F4E0E0E093EA09E093EB0917
:10108A00E0E0F0E014C00E947409AC81BD810E94C6
:10109A00EC078F01309729F0D8010F5F1F4FE0E06E
:1010AA00EC930093EA091093EB09EC81FD81198115
:1010BA00088126960895BA93AA93B981A881EC91DA
:1010CA008A2FAE2F0E94A008A82FEE2311F01196A6
:1010DA00F6CFE894EC91ED3211F4689402C0EB3249
:1010EA0009F4119666277727EC918A2FAE2F0E9472
:1010FA009708A82FEE2379F0FB01660F771F660F7A
:10110A00771F6E0F7F1F660F771FED91FF27E05342
:10111A006E0F7F1FE9CFFB011EF4E095F095319623
:10112A0022960895AA93E1E0F991F03310F0FA3388
:10113A0008F0EE270895AA93E1E0F991F03229F038
:10114A00F93010F0FE3008F0EE270895E0E0E09361
:10115A000082E09300830895BA93AA930E94AA0991
:10116A000895AC81BD810C94E007AC81BD81AE0FBE
:10117A00BF1F0895E091C607F091C7070995089522
:10118A00BA93AA931A930A93AC81BD810E94A409C7
:10119A000895EA81FB81A281B381BA93AA93089543
:1011AA00EA81FB81A481B5810895EB89FC89A2813A
:1011BA00B381BA93AA930895EB89FC89A481B58176
:1011CA0008950E9460088F01002400160106089500
:1011DA000E949503FE013296FA93EA9308950E94BB
:1011EA00D307FE013296FA93EA93ED89FE89A48128
:1011FA00B5810E94AE07DE0112960C94E905E8A5B6
:10120A00F9A5A281B381BA93AA930895F801A8A572
:10121A00B9A5EE0FFF1FAE0FBF1F0E94A0090895C8
:10122A00EE0FFF1FAE0FBF1F0E94A0090895AA93D9
:10123A00E881A1E0B0E00E9490090895E093E407F4
:10124A00F093E507E091E407E093008008950A929D
:10125A001A92FA926A937A938A939A93AA93BA936E
:10126A00EA93FA93EFB7EA930895E991EFBFF991F8
:10127A00E991B991A9919991899179916991F99095
:10128A00199009900895A1E0B0E00C9486095E2EA9
:10129A00E0930082E881E0930083E52D0895B0E0B1
:1012AA000E948609A0E30C946306E7EDF8E0E09358
:1012BA005709F09358090895FA93EA93A9EDB9E00A
:1012CA000E948707E0E00895E12FF0E0DE0114961E
:1012DA000895FA93EA93ACEFB4E00C941808EC8101
:1012EA00FD81FA93EA930895FE01E05CFF4F0190B5
:1012FA00F081E02D0895FA93EA93A9EDB9E00C94F0
:10130A008707109639F080EA9FE00197F1F7A895D0
:10131A001197C9F70895EE230E2EFD0121F0EE0F65
:10132A00FF1F0A94E1F70895EE0FFF1FEE0FFF1F4C
:10133A00EE0FFF1F0895ED91FC9111970895002477
:10134A000A160B0608955A934A933A932A931A93C4
:10135A000A9308955D814C813B812A811981088114
:10136A000895AC0FBD1F05900D928A95E1F7089577
:00000001FF
