:0C0000000C946A030C9400000C940000A7
:10000C000C9400000C9400000C9400000C94000064
:10001C000C9400000C9400000C9400000C94000054
:10002C000C9400000C9400000C9400000C9403073A
:10003C000C9400000C9400000C9400000C94EA0545
:10004C000C9400000C9400000C9400000C94000024
:10005C000C9400000C9400000C9400000C94000014
:10006C000C9400000C9400000C9400000C94000004
:10007C000C9400000C9400000C9400000C940000F4
:10008C003D3D3D4C4B454D4245444445443D3D3D35
:10009C00003D3D3D3D20205757572E203D3D3D3DD9
:1000AC003D003D3D204C4B454D4245444445442E7E
:1000BC003D3D003D3D3D3D20434F2E4B52203D3DAF
:1000CC003D3D3D00202020456475636174696F6E71
:1000DC002020202000202020446576656C6F706DF8
:1000EC00656E7420200020204156522044657620F5
:1000FC002620454455200020205049432044657655
:10010C002026204544552000202041524D20446596
:10011C00762026204544552000205041445320444D
:10012C006576202620454455200020202043697206
:10013C007175697420454455202000001027E80390
:10014C0064000A0001000010000110000100000012
:10015C000005DA030505E3030A05FC0310055D043D
:10016C001405020518057B051D052F040000000071
:10017C000000000000000000000000000000000073
:10018C000000000000000000000000000000000063
:10019C000000000000000000000000000000000053
:1001AC0068656C700073686F7700626C696E6B00C9
:1001BC006C6564006C6364006C65643700646F7418
:1001CC006D61740048454C502066756E6374696FA0
:1001DC006E206578656375746564000D68656C7078
:1001EC003A2048656C702066756E6374696F6E207A
:1001FC000A0D00626C696E6B3A20426C696E6B2062
:10020C0066756E6374696F6E200A0D006C65643AD6
:10021C00204C65642066756E6374696F6E200A0DE0
:10022C00006C63643A204C63642066756E63746979
:10023C006F6E200A0D006C6564373A204C6564378C
:10024C002066756E6374696F6E200A0D002D6865EB
:10025C006C7000424C494E4B2068656C70206D658B
:10026C006E753A200D3C626C696E6B3E203C6F6E75
:10027C002F6F66663E203C76616C756528312D3E8D
:10028C0038293E006F6E006563686F3A20646973AD
:10029C00706C61792000424C494E4B2066756E6340
:1002AC0074696F6E20657865637574656400446F5E
:1002BC00744D61742068656C70206D656E753A20A4
:1002CC000D3C646F746D61743E203C646973703EC8
:1002DC00203C76616C756528302D3E3237293E0006
:1002EC0064697370006563686F3A20446F74204DC5
:1002FC00617472697820646973706C61792000652F
:10030C0063686F3A204C65642068656C70206D657D
:10031C006E753A200D3C6C65643E203C6F6E2F6F01
:10032C0066663E203C76616C756528312D3E382919
:10033C003E006563686F3A205475726E206F6E20B4
:10034C006C65642000616C6C006563686F3A2041D9
:10035C006C6C206C656420776173206F6E00547533
:10036C00726E206F6E20616C6C206C656473006F14
:10037C006666006563686F3A205475726E206F660E
:10038C0066206C656420006563686F3A20416C6C74
:10039C00206C656420776173206F666600547572FB
:1003AC006E206F666620616C6C206C6564730065F2
:1003BC0063686F3A203C6C65643E203C6F6E2F6F17
:1003CC0066663E203C6368616E6E656C2F616C6C7A
:1003DC003E006563686F3A204C63642068656C70FE
:1003EC00206D656E753A200D3C6C63643E203C6458
:1003FC006973703E203C746578743E006563686F69
:10040C003A20446973706C6179206F6E204C4344C0
:10041C00004C4544372068656C70206D656E753AEC
:10042C00200D3C6C6564373E203C646973703E2043
:10043C003C76616C756528312D3E38293E004C6543
:10044C0064372066756E6374696F6E2065786563BA
:10045C007574656400000102040810204080E7DB1D
:10046C00BDBD81BDBDBDC1BDBDC1DDBDBDC1C3BDBA
:10047C00FDFDFDBDBDC3C1BDBDBDBDBDBDC181FDCE
:10048C00FD81FDFDFD8181FDFD81FDFDFDFDE7D9BA
:10049C00BDFD8DBDDBE7BDBDBD81BDBDBDBDC3E734
:1004AC00E7E7E7E7E7C3C3E7E7E7E7E5F5FBDDEDFC
:1004BC00F5F9F5EDDDBDFDFDFDFDFDFDFD81BD9904
:1004CC00A5A5A5BDBDBDBDBDB9B5AD9DBDBDE7DB8C
:1004DC00BDBDBDBDDBE7E1DDDDDDE1FDFDFDE3DD4A
:1004EC00DDDDD5CDC3BFC1BDBDC1DDBDBDBDC3BD92
:1004FC00FDC3BFBFBDC381E7E7E7E7E7E7E7BDBDE6
:10050C00BDBDBDBDBDC3BDBDBDBDBDBDDBE7BDBDC1
:10051C00BDBDA5A5A599BDBDD9E7E7DBBDBDBDBDDD
:10052C00BDDBE7E7E7E781BFDFEFF7FBFD8100000D
:10053C00060000003E3E20000D0007080A084F4B45
:10054C0000436F6D6D616E64206E6F742072656315
:10055C006F676E697365640020003F065B4F666DC4
:10056C007D277F6F01002D4E414E00494E46000005
:10057C00010002005A0105000005AC01050005054B
:10058C00B10106000A05B60104001005BC01040007
:10059C001405C00105001805C40107001D05C9019B
:1005AC001C0027085C0117002405D00118003B052E
:1005BC00E70119005305FF0115006C051802150021
:1005CC0081052D021700960542020600AD05590261
:1005DC003100B3055F020300E40590020F00E7054C
:1005EC0093021800F605A20206000E06590232000C
:1005FC001406BA0205004606EC021A004B06F1027C
:10060C0005006506AC0133006A060B0303009D066A
:10061C0090021300A0063E030D00B3064403040031
:10062C00C00651031500C40655031100D9066A0310
:10063C000400EA067B031400EE067F030E0002079B
:10064C0085030400100751031600140793031200CE
:10065C002A07A90323003C07BB0306005F075902C6
:10066C002A006507DE0305008F07EC0215009407CE
:10067C0008040600A90759022D00AF071D04050048
:10068C00DC07EC020F00E10793021700F0074A04A5
:10069C00080056086204D0005E086A0406000400D4
:1006AC003A050300430A40050100470A44050300CC
:1006BC0007084A0517000A084D050A00490A66058D
:1006CC000100560A70050000F894EE27ECBBF1E02F
:1006DC00F5BFE5BFE0936C00F8E1F1BDE1BD8DE045
:1006EC00A2E0BB27ED938A95E9F780E090E1A0E0CA
:1006FC00B1E0ED930197E9F7ECE7F5E08591959181
:10070C00009761F0A591B59105901590BF01F0018E
:10071C0005900D920197E1F7FB01F0CF8BBFEFEF46
:10072C00EDBFE0E1EEBFC0E0D5E00C949D0320D01E
:10073C000E9402060E94CD06A0E0BFEF0E94EF06C9
:10074C00E2ECF3E0E0932108F0932208E7E2F8E012
:10075C00E0932308F0932408E7E0F0E0E093250809
:10076C00F0932608A1E2B8E00E941507FFCFFFCF57
:10077C000E942209789408950E9436090E943D092E
:10078C009F0100E010E00217130754F4F8010E94D7
:10079C004109AC91BB270E94DD050F5F1F4FF3CFC2
:1007AC000E943A0A0C94D508BA93AA93A4E2B5E035
:1007BC000E944609E0E00C948D08BA93AA93ABE32F
:1007CC00B5E00E944609A3E5B5E00E944609ACE6F7
:1007DC00B5E00E944609A1E8B5E00E944609A6E9E9
:1007EC00B5E00E944609E0E00C948D080E944C098B
:1007FC004CF10E945409ADEAB5E00E943608E03095
:10080C0021F4A3EBB5E00E9446090E945409A4EE22
:10081C00B5E00E943608E030A1F40E945B090E940A
:10082C00600922F00C31E0E01E070CF00AC0D80180
:10083C000E940F06A7EEB5E00E9446090E945B09D4
:10084C009BDF04C0A6EFB5E00E944609E0E00C94E3
:10085C00D3080E944C0944F10E945409AEE0B6E062
:10086C000E943608E03021F4A4E1B6E00E9446096B
:10087C000E945409A6E4B6E00E943608E030A1F4C8
:10088C000E945B090E94600922F00C31E0E01E0717
:10089C000CF00AC0D8010E940F06ABE4B6E00E942F
:1008AC0046090E945B0968DFE0E00C94D308BA9318
:1008BC00AA93619781E1A0E0B0E0E8E7F1E00E9443
:1008CC003F0A1A930A93AD89BE890E942D0A14F02F
:1008DC000C94F9040E946509A5E6B6E00E9436085E
:1008EC00E03021F4AAE6B6E00E9446090E946509B0
:1008FC00ADE9B6E00E943608E030B1F50E946C0913
:10090C000E94710924F40930E0E01E070CF00FC0BE
:10091C00A02FA15026D1A0EAB6E00E9446090E9461
:10092C006C090E947809A3EBB6E00E947F090E9433
:10093C006C09BA93AA93A0ECB6E00E943608E0309A
:10094C0099F400E010E00830E0E01E072CF4A02F32
:10095C0008D10F5F1F4FF7CFA4ECB6E00E944609F9
:10096C00A9EDB6E00E9441060E946509AAEEB6E028
:10097C000E943608E030B1F50E946C090E947109A2
:10098C0024F40930E0E01E070CF00FC0A02FA1509A
:10099C00FAD0AEEEB6E00E9446090E946C090E94A5
:1009AC007809A2E0B7E00E947F090E946C09BA9313
:1009BC00AA93A0E1B7E00E943608E03099F400E079
:1009CC0010E00830E0E01E072CF4A02FDCD00F5F05
:1009DC001F4FF7CFA4E1B7E00E944609AAE2B7E0A7
:1009EC000E94410604C0ACE3B7E00E944609E0E077
:1009FC001981088167960895BA93AA93A29782E207
:100A0C00A0E0B0E0EAE8F1E00E943F0A0E94310A5F
:100A1C0040E050E0AAA5BBA50E942D0A14F00C944E
:100A2C0077050E948F09AFE5B7E00E943608E030E9
:100A3C0021F4A5E6B7E00E9446090E948F09AFE8B1
:100A4C00B7E00E943608E03011F00C94760520E0F7
:100A5C0030E002E010E0EAA5FBA50E171F0784F5B5
:100A6C000E949609DF010E9457082E0F3F1F21316B
:100A7C00E0E03E076CF4FA01DE015796EA0FFB1F2B
:100A8C000F010E949609E40FF51FE081D001EC9351
:100A9C002131E0E03E0724F02731E0E03E070CF086
:100AAC000CC0FE013696FA93EA93F801AAA5BBA5F1
:100ABC000E94A009DF010E9425080F5F1F4FCBCFBA
:100ACC00DE0157960E9441062131E0E03E0724F0FA
:100ADC00DE0116960E946406A4E9B7E00E9446095E
:100AEC00E0E00E94380AAC960895BA93AA931A9340
:100AFC000A93AC81BD810E942D0A44F50E945409D1
:100B0C00A9EAB7E00E943608E03021F4AFEAB7E07A
:100B1C000E9446090E945409ACEDB7E00E943608C9
:100B2C00E030A1F40E945B090E94600922F00A30B7
:100B3C00E0E01E070CF00AC0D8010E941008A1EEDC
:100B4C00B7E00E9446090E945B0916DEEC81FD812C
:100B5C00309721F4A0EFB7E00E944609E0E00C9436
:100B6C00D308AA930E942209E881A1E0B0E00E9478
:100B7C00190AA0914308B0914408EA2BFB2B0E9460
:100B8C00A7090C94CB06AA930E942209E881A1E044
:100B9C00B0E00E94190AE095F095A0914308B0913D
:100BAC004408EA23FB230E94A7090C94CB06BA93B2
:100BBC00AA935D9BFECF5098E981E17009F0509AA1
:100BCC00E881ECB90C9423080E94B0091A930A939B
:100BDC001BB10CB1A02FBB27EADFE12FEC7139F46C
:100BEC00E1E2F8E0FA93EA93A02F0E94AD07099195
:100BFC0019910E94BE091895E0E0EBB9E8E9EAB951
:100C0C00E6E0E0939500E0E0E0939000E7E6E9B9D8
:100C1C0008950E94360920E030E0EC81E0933E0913
:100C2C002C813D81E0E8E5BFE0E0E093008300E04B
:100C3C0010E00830E0E01E07D4F4F9010E94220A0B
:100C4C00E25AF74FE00FF11FE081E095E09300844A
:100C5C00E0E0E0930085A6E5B8E0A00FB11FEC91B1
:100C6C00E09300830E94CC090F5F1F4FE2CF0E94DC
:100C7C003A0A0C94D5080E94D0098F0120E030E08C
:100C8C0040D063D020E030E0201731072CF4A0E2F4
:100C9C0061D02F5F3F4FF8CF58D020E030E02017C5
:100CAC00310744F4F9010E944109AC9153D02F5FF4
:100CBC003F4FF5CF0E943A0A0C94D5080E94D009F8
:100CCC008F0120E030E02ED042D020E030E0201721
:100CDC0031072CF4A0E23ED02F5F3F4FF8CF37D036
:100CEC0020E030E02017310744F4F9010E9441095B
:100CFC00AC9130D02F5F3F4FF5CF0E943A0A0C9445
:100D0C00D5081A930A9300E010E01FD000E010E021
:100D1C000031E0E01E072CF4A0E21CD00F5F1F4F47
:100D2C00F7CF10C01A930A9300E010E010D000E047
:100D3C0010E00031E0E01E072CF4A0E20BD00F5FB6
:100D4C001F4FF7CF099119910895A0E801C0A0ECAD
:100D5C0008D00895AA93E92DE0610E94D509E065B9
:100D6C0006C0AA93E92DEF7C0E94D509E0649E2E63
:100D7C00E093008285E08A95F1F7E92DEF7B9E2EBA
:100D8C00E093008285ED8A95F1F721960895E0E0D5
:100D9C00E0930082E0930083AAE00E94DD09A5E0C5
:100DAC000E94DD090E94CC09A0E3DBDFA5E0B0E0E6
:100DBC000E940F0AA8E3D5DFACE0D3DFA4E1D1DFBA
:100DCC00A6E0CFDFA1E0CDDFA2E0B0E00E940F0AE9
:100DDC000895BA93AA93E881F981FDBDECBDE09327
:100DEC003F09F0934009E7B7E460E7BFEEB5E56073
:100DFC00EEBDE1E0E6BF0C9423080E94B009A1E22D
:100E0C00B8E016D0ECB5FDB5A0913F09B091400902
:100E1C00EA0FFB1FFDBDECBD0E94BE091895BA93ED
:100E2C00AA930E94E309E881F9810E94EA0905C1AD
:100E3C00BA93AA93EC970E94330A10E020E030E0BA
:100E4C0021FE80C0E89421F80E94F209EE0FFF1FEA
:100E5C00EA0FFB1FFF93EF93E3ECF9E00E94F70915
:100E6C00AF91BF91ED93FC930E94F2090E94A009EF
:100E7C00309711F01E3108F012C01F5F0E94F2096A
:100E8C00EE0FFF1FEA0FFB1FFF93EF93E0E0F0E084
:100E9C000E94F709AF91BF91ED93FC93E5CF20E051
:100EAC0030E0DE01A05CBF4F0D90BC91A02D1496DC
:100EBC000E94290A2E173F07C8F50E94FD09FE0162
:100ECC00EE5BFF4F0190F081E02DA281B381F9011F
:100EDC000E94240AAE0FBF1F0E94290ADF010E9444
:100EEC003608E03001F50E94020AA281B381F901B3
:100EFC000E94240AAE0FBF1F12960E94290AFF936C
:100F0C00EF93E12FF0E0FA93EA93DE011696EF915E
:100F1C00FF910995ADE0B0E00E94DD050E94020A48
:100F2C000E94EA090FC02F5F3F4FBBCF0E94020AFD
:100F3C00FA93EA93A7E4BAE057D00E94020A0E94FF
:100F4C00090AE3E00E943A0AEF9623960895AA93C1
:100F5C00E881F0E0ED30A0E0FA07B9F4A091C10906
:100F6C00B091C209E0E0EC93E3ECF9E0FA93EA9378
:100F7C00A1E4B9E00E944A080E94E309E981FA81E0
:100F8C000E94090A689421F82DC0E830A0E0FA0705
:100F9C0089F4E1E4F9E0A091C109B091C209EA1722
:100FAC00FB0738F4A1ECB9E0ED91FD913197FE937C
:100FBC00EE9318C0A1E4B9E0E091C109F091C20927
:100FCC00EA1BFB0BE038A0E0FA0758F4A1ECB9E0FF
:100FDC00ED91FD913196FE93EE933197A881A0830C
:100FEC0001C0E5E023960895BA93AA93E297FE0117
:100FFC00FA93EA93ACA9BDA90E944A08ACA9BDA971
:10100C000E94290AFF93EF93DE01EF91FF9109955E
:10101C00E6960895BA93AA93E0E8E5BFE0E0E09382
:10102C000081E0930083E0E2E0930081E881F981A4
:10103C00E75BF54FE081E093008322960895BA9325
:10104C00AA93E991F991A991B991CD016D9166237A
:10105C00E9F7119761916D936623E1F7FC0108950F
:10106C00BA93AA93E991F991A991B9916D91719162
:10107C00671721F46623D1F7EE270895671BE1F378
:10108C00E1E008F4E2500895BA93AA93E991F9913A
:10109C00A991B991CD0161916D936623E1F7FC01A2
:1010AC000895BA93AA93A991B991EE27FF276D9150
:1010BC00662311F03196FBCF0895BA93AA93BB81A6
:1010CC00AA816C91662361F0F981E881C8950020B2
:1010DC0029F031966015D1F7FD0104C01196F1CFBE
:1010EC00EE27FF270C948D08BA93AA93BB81AA8193
:1010FC00882799276D91662349F0F981E88105903D
:10110C00002021F06015D9F70196F4CFFC0124964C
:10111C000895BA93AA931A930A93EC81FD813097A0
:10112C0079F4E091540AF091550A309719F4E0E003
:10113C00F0E033C0E091540AF091550AEC83FD8342
:10114C000E94FD09AC81BD810E947A08AC81BD81F1
:10115C00EA0FFB1FEC83FD83AC81BD81EC91E03089
:10116C0041F4E0E0E093540AE093550AE0E0F0E04B
:10117C0014C00E94FD09AC81BD810E9463088F01DF
:10118C00309729F0D8010F5F1F4FE0E0EC930093EC
:10119C00540A1093550AEC81FD8119810881269619
:1011AC000895BA93AA93B981A881EC918A2FAE2F96
:1011BC000E941709A82FEE2311F01196F6CFE89490
:1011CC00EC91ED3211F4689402C0EB3209F41196F3
:1011DC0066277727EC918A2FAE2F0E940E09A82F35
:1011EC00EE2379F0FB01660F771F660F771F6E0FEA
:1011FC007F1F660F771FED91FF27E0536E0F7F1F48
:10120C00E9CFFB011EF4E095F095319622960895F6
:10121C00AA93E1E0F991F03310F0FA3308F0EE27DD
:10122C000895AA93E1E0F991F03229F0F93010F029
:10123C00FE3008F0EE270895E0E8E5BFE0E0E0932B
:10124C000080E0930081E0930082E0930083E093C0
:10125C000084E0930085E0930086E0930087089576
:10126C00BA93AA930E94330A00E010E00895AC816F
:10127C00BD810C945708AC81BD81AE0FBF1F089582
:10128C00E0912108F091220809950895BA93AA9348
:10129C001A930A93AC81BD8112970895EA81FB8160
:1012AC00A281B381BA93AA930895EA81FB81A481A8
:1012BC00B58108950E94D7088F0111230895EB89F9
:1012CC00FC89A281B381BA93AA930895EB89FC8916
:1012DC00A481B58108950E94D7088F0100240016BF
:1012EC00010608950E94C203FE013296FA93EA9316
:1012FC0008950E944A08FE013296FA93EA93ED890A
:10130C00FE89A481B5810E942508DE0112960C94F9
:10131C004106E8A5F9A5A281B381BA93AA930895D1
:10132C00F801A8A5B9A5EE0FFF1FAE0FBF1F0E94B5
:10133C00290A0895EE0FFF1FAE0FBF1F0E94290A46
:10134C000895E0934308F0934408E0914308E09338
:10135C00008008950A921A92FA926A937A938A9369
:10136C009A93AA93BA93EA93FA93EFB7EA930895F0
:10137C00E991EFBFF991E991B991A991999189916D
:10138C0079916991F990199009900895A1E0B0E0D4
:10139C000C940F0ABA93AA930E94330A68CF9E2E1C
:1013AC00E0930082E881E0930083E92D0895B0E09A
:1013BC000E940F0AA0E30C94B706E1E4F9E0E09375
:1013CC00C109F093C2090895FA93EA93A3E4BAE031
:1013DC000E94FA07E0E00895E12FF0E0DE01149698
:1013EC000895FA93EA93A4E6B5E00C948F08EC8187
:1013FC00FD81FA93EA930895FE01E05CFF4F0190A2
:10140C00F081E02D0895FA93EA93A3E4BAE00C94EA
:10141C00FA07109639F080EA9FE00197F1F7A8954A
:10142C001197C9F70895EE230E2EFD0121F0EE0F52
:10143C00FF1F0A94E1F70895EE0FFF1FEE0FFF1F39
:10144C00EE0FFF1F0895ED91FC9111970895002464
:10145C000A160B0608955A934A933A932A931A93B1
:10146C000A9308955D814C813B812A811981088101
:10147C000895AC0FBD1F05900D928A95E1F7089564
:00000001FF
